{
  "_format": "hh-sol-artifact-1",
  "contractName": "EpicNftGame",
  "sourceName": "contracts/EpicNftGame.sol",
  "abi": [
    {
      "inputs": [
        {
          "internalType": "string[]",
          "name": "characterNames",
          "type": "string[]"
        },
        {
          "internalType": "string[]",
          "name": "characterImageURIs",
          "type": "string[]"
        },
        {
          "internalType": "uint256[]",
          "name": "characterHp",
          "type": "uint256[]"
        },
        {
          "internalType": "uint256[]",
          "name": "characterAttackDamage",
          "type": "uint256[]"
        },
        {
          "internalType": "string",
          "name": "bossName",
          "type": "string"
        },
        {
          "internalType": "string",
          "name": "bossURI",
          "type": "string"
        },
        {
          "internalType": "uint256",
          "name": "bossHp",
          "type": "uint256"
        },
        {
          "internalType": "uint256",
          "name": "bossAttackDamage",
          "type": "uint256"
        }
      ],
      "stateMutability": "nonpayable",
      "type": "constructor"
    },
    {
      "anonymous": false,
      "inputs": [
        {
          "indexed": true,
          "internalType": "address",
          "name": "owner",
          "type": "address"
        },
        {
          "indexed": true,
          "internalType": "address",
          "name": "approved",
          "type": "address"
        },
        {
          "indexed": true,
          "internalType": "uint256",
          "name": "tokenId",
          "type": "uint256"
        }
      ],
      "name": "Approval",
      "type": "event"
    },
    {
      "anonymous": false,
      "inputs": [
        {
          "indexed": true,
          "internalType": "address",
          "name": "owner",
          "type": "address"
        },
        {
          "indexed": true,
          "internalType": "address",
          "name": "operator",
          "type": "address"
        },
        {
          "indexed": false,
          "internalType": "bool",
          "name": "approved",
          "type": "bool"
        }
      ],
      "name": "ApprovalForAll",
      "type": "event"
    },
    {
      "anonymous": false,
      "inputs": [
        {
          "indexed": false,
          "internalType": "uint256",
          "name": "newBossHp",
          "type": "uint256"
        },
        {
          "indexed": false,
          "internalType": "uint256",
          "name": "newPlayerHp",
          "type": "uint256"
        }
      ],
      "name": "AttackComplete",
      "type": "event"
    },
    {
      "anonymous": false,
      "inputs": [
        {
          "indexed": false,
          "internalType": "address",
          "name": "sender",
          "type": "address"
        },
        {
          "indexed": false,
          "internalType": "uint256",
          "name": "tokenId",
          "type": "uint256"
        },
        {
          "indexed": false,
          "internalType": "uint256",
          "name": "characterIndex",
          "type": "uint256"
        }
      ],
      "name": "CharacterNFTMinted",
      "type": "event"
    },
    {
      "anonymous": false,
      "inputs": [
        {
          "indexed": true,
          "internalType": "address",
          "name": "from",
          "type": "address"
        },
        {
          "indexed": true,
          "internalType": "address",
          "name": "to",
          "type": "address"
        },
        {
          "indexed": true,
          "internalType": "uint256",
          "name": "tokenId",
          "type": "uint256"
        }
      ],
      "name": "Transfer",
      "type": "event"
    },
    {
      "inputs": [
        {
          "internalType": "address",
          "name": "to",
          "type": "address"
        },
        {
          "internalType": "uint256",
          "name": "tokenId",
          "type": "uint256"
        }
      ],
      "name": "approve",
      "outputs": [],
      "stateMutability": "nonpayable",
      "type": "function"
    },
    {
      "inputs": [],
      "name": "attackBoss",
      "outputs": [],
      "stateMutability": "nonpayable",
      "type": "function"
    },
    {
      "inputs": [
        {
          "internalType": "address",
          "name": "owner",
          "type": "address"
        }
      ],
      "name": "balanceOf",
      "outputs": [
        {
          "internalType": "uint256",
          "name": "",
          "type": "uint256"
        }
      ],
      "stateMutability": "view",
      "type": "function"
    },
    {
      "inputs": [],
      "name": "bigBoss",
      "outputs": [
        {
          "internalType": "string",
          "name": "name",
          "type": "string"
        },
        {
          "internalType": "string",
          "name": "imageURI",
          "type": "string"
        },
        {
          "internalType": "uint256",
          "name": "hp",
          "type": "uint256"
        },
        {
          "internalType": "uint256",
          "name": "maxHp",
          "type": "uint256"
        },
        {
          "internalType": "uint256",
          "name": "attackDamage",
          "type": "uint256"
        }
      ],
      "stateMutability": "view",
      "type": "function"
    },
    {
      "inputs": [],
      "name": "checkIfUserHasNft",
      "outputs": [
        {
          "components": [
            {
              "internalType": "uint256",
              "name": "characterIndex",
              "type": "uint256"
            },
            {
              "internalType": "string",
              "name": "name",
              "type": "string"
            },
            {
              "internalType": "string",
              "name": "imageURI",
              "type": "string"
            },
            {
              "internalType": "uint256",
              "name": "hp",
              "type": "uint256"
            },
            {
              "internalType": "uint256",
              "name": "maxHp",
              "type": "uint256"
            },
            {
              "internalType": "uint256",
              "name": "attackDamage",
              "type": "uint256"
            }
          ],
          "internalType": "struct EpicNftGame.CharacterAttributes",
          "name": "",
          "type": "tuple"
        }
      ],
      "stateMutability": "view",
      "type": "function"
    },
    {
      "inputs": [],
      "name": "getAllDefaultCharacters",
      "outputs": [
        {
          "components": [
            {
              "internalType": "uint256",
              "name": "characterIndex",
              "type": "uint256"
            },
            {
              "internalType": "string",
              "name": "name",
              "type": "string"
            },
            {
              "internalType": "string",
              "name": "imageURI",
              "type": "string"
            },
            {
              "internalType": "uint256",
              "name": "hp",
              "type": "uint256"
            },
            {
              "internalType": "uint256",
              "name": "maxHp",
              "type": "uint256"
            },
            {
              "internalType": "uint256",
              "name": "attackDamage",
              "type": "uint256"
            }
          ],
          "internalType": "struct EpicNftGame.CharacterAttributes[]",
          "name": "",
          "type": "tuple[]"
        }
      ],
      "stateMutability": "view",
      "type": "function"
    },
    {
      "inputs": [
        {
          "internalType": "uint256",
          "name": "tokenId",
          "type": "uint256"
        }
      ],
      "name": "getApproved",
      "outputs": [
        {
          "internalType": "address",
          "name": "",
          "type": "address"
        }
      ],
      "stateMutability": "view",
      "type": "function"
    },
    {
      "inputs": [],
      "name": "getBigBoss",
      "outputs": [
        {
          "components": [
            {
              "internalType": "string",
              "name": "name",
              "type": "string"
            },
            {
              "internalType": "string",
              "name": "imageURI",
              "type": "string"
            },
            {
              "internalType": "uint256",
              "name": "hp",
              "type": "uint256"
            },
            {
              "internalType": "uint256",
              "name": "maxHp",
              "type": "uint256"
            },
            {
              "internalType": "uint256",
              "name": "attackDamage",
              "type": "uint256"
            }
          ],
          "internalType": "struct EpicNftGame.BigBoss",
          "name": "",
          "type": "tuple"
        }
      ],
      "stateMutability": "view",
      "type": "function"
    },
    {
      "inputs": [
        {
          "internalType": "address",
          "name": "owner",
          "type": "address"
        },
        {
          "internalType": "address",
          "name": "operator",
          "type": "address"
        }
      ],
      "name": "isApprovedForAll",
      "outputs": [
        {
          "internalType": "bool",
          "name": "",
          "type": "bool"
        }
      ],
      "stateMutability": "view",
      "type": "function"
    },
    {
      "inputs": [
        {
          "internalType": "uint256",
          "name": "_characterIndex",
          "type": "uint256"
        }
      ],
      "name": "mintCharacterNFT",
      "outputs": [],
      "stateMutability": "nonpayable",
      "type": "function"
    },
    {
      "inputs": [],
      "name": "name",
      "outputs": [
        {
          "internalType": "string",
          "name": "",
          "type": "string"
        }
      ],
      "stateMutability": "view",
      "type": "function"
    },
    {
      "inputs": [
        {
          "internalType": "uint256",
          "name": "",
          "type": "uint256"
        }
      ],
      "name": "nftHolderAttributes",
      "outputs": [
        {
          "internalType": "uint256",
          "name": "characterIndex",
          "type": "uint256"
        },
        {
          "internalType": "string",
          "name": "name",
          "type": "string"
        },
        {
          "internalType": "string",
          "name": "imageURI",
          "type": "string"
        },
        {
          "internalType": "uint256",
          "name": "hp",
          "type": "uint256"
        },
        {
          "internalType": "uint256",
          "name": "maxHp",
          "type": "uint256"
        },
        {
          "internalType": "uint256",
          "name": "attackDamage",
          "type": "uint256"
        }
      ],
      "stateMutability": "view",
      "type": "function"
    },
    {
      "inputs": [
        {
          "internalType": "address",
          "name": "",
          "type": "address"
        }
      ],
      "name": "nftHolders",
      "outputs": [
        {
          "internalType": "uint256",
          "name": "",
          "type": "uint256"
        }
      ],
      "stateMutability": "view",
      "type": "function"
    },
    {
      "inputs": [
        {
          "internalType": "uint256",
          "name": "tokenId",
          "type": "uint256"
        }
      ],
      "name": "ownerOf",
      "outputs": [
        {
          "internalType": "address",
          "name": "",
          "type": "address"
        }
      ],
      "stateMutability": "view",
      "type": "function"
    },
    {
      "inputs": [
        {
          "internalType": "address",
          "name": "from",
          "type": "address"
        },
        {
          "internalType": "address",
          "name": "to",
          "type": "address"
        },
        {
          "internalType": "uint256",
          "name": "tokenId",
          "type": "uint256"
        }
      ],
      "name": "safeTransferFrom",
      "outputs": [],
      "stateMutability": "nonpayable",
      "type": "function"
    },
    {
      "inputs": [
        {
          "internalType": "address",
          "name": "from",
          "type": "address"
        },
        {
          "internalType": "address",
          "name": "to",
          "type": "address"
        },
        {
          "internalType": "uint256",
          "name": "tokenId",
          "type": "uint256"
        },
        {
          "internalType": "bytes",
          "name": "_data",
          "type": "bytes"
        }
      ],
      "name": "safeTransferFrom",
      "outputs": [],
      "stateMutability": "nonpayable",
      "type": "function"
    },
    {
      "inputs": [
        {
          "internalType": "address",
          "name": "operator",
          "type": "address"
        },
        {
          "internalType": "bool",
          "name": "approved",
          "type": "bool"
        }
      ],
      "name": "setApprovalForAll",
      "outputs": [],
      "stateMutability": "nonpayable",
      "type": "function"
    },
    {
      "inputs": [
        {
          "internalType": "bytes4",
          "name": "interfaceId",
          "type": "bytes4"
        }
      ],
      "name": "supportsInterface",
      "outputs": [
        {
          "internalType": "bool",
          "name": "",
          "type": "bool"
        }
      ],
      "stateMutability": "view",
      "type": "function"
    },
    {
      "inputs": [],
      "name": "symbol",
      "outputs": [
        {
          "internalType": "string",
          "name": "",
          "type": "string"
        }
      ],
      "stateMutability": "view",
      "type": "function"
    },
    {
      "inputs": [
        {
          "internalType": "uint256",
          "name": "_tokenId",
          "type": "uint256"
        }
      ],
      "name": "tokenURI",
      "outputs": [
        {
          "internalType": "string",
          "name": "",
          "type": "string"
        }
      ],
      "stateMutability": "view",
      "type": "function"
    },
    {
      "inputs": [
        {
          "internalType": "address",
          "name": "from",
          "type": "address"
        },
        {
          "internalType": "address",
          "name": "to",
          "type": "address"
        },
        {
          "internalType": "uint256",
          "name": "tokenId",
          "type": "uint256"
        }
      ],
      "name": "transferFrom",
      "outputs": [],
      "stateMutability": "nonpayable",
      "type": "function"
    }
  ],
  "bytecode": "0x60806040523480156200001157600080fd5b506040516200576d3803806200576d833981810160405281019062000037919062000947565b6040518060400160405280600681526020017f4865726f657300000000000000000000000000000000000000000000000000008152506040518060400160405280600481526020017f4845524f000000000000000000000000000000000000000000000000000000008152508160009080519060200190620000bb929190620006da565b508060019080519060200190620000d4929190620006da565b50505060005b88518110156200050f57600c6040518060c001604052808381526020018b848151811062000131577f4e487b7100000000000000000000000000000000000000000000000000000000600052603260045260246000fd5b602002602001015181526020018a848151811062000178577f4e487b7100000000000000000000000000000000000000000000000000000000600052603260045260246000fd5b60200260200101518152602001898481518110620001bf577f4e487b7100000000000000000000000000000000000000000000000000000000600052603260045260246000fd5b6020026020010151815260200189848151811062000206577f4e487b7100000000000000000000000000000000000000000000000000000000600052603260045260246000fd5b602002602001015181526020018884815181106200024d577f4e487b7100000000000000000000000000000000000000000000000000000000600052603260045260246000fd5b60200260200101518152509080600181540180825580915050600190039060005260206000209060060201600090919091909150600082015181600001556020820151816001019080519060200190620002a9929190620006da565b506040820151816002019080519060200190620002c8929190620006da565b50606082015181600301556080820151816004015560a0820151816005015550506000600c828154811062000326577f4e487b7100000000000000000000000000000000000000000000000000000000600052603260045260246000fd5b90600052602060002090600602016040518060c0016040529081600082015481526020016001820180546200035b9062000cca565b80601f0160208091040260200160405190810160405280929190818152602001828054620003899062000cca565b8015620003da5780601f10620003ae57610100808354040283529160200191620003da565b820191906000526020600020905b815481529060010190602001808311620003bc57829003601f168201915b50505050508152602001600282018054620003f59062000cca565b80601f0160208091040260200160405190810160405280929190818152602001828054620004239062000cca565b8015620004745780601f10620004485761010080835404028352916020019162000474565b820191906000526020600020905b8154815290600101906020018083116200045657829003601f168201915b5050505050815260200160038201548152602001600482015481526020016005820154815250509050620004f76040518060400160405280601c81526020017f4d696e74656420257320776974682048502025732c20696d6720257300000000815250826020015183606001518460400151620005ef60201b62001bd51760201c565b5060018162000507919062000c2d565b9050620000da565b506040518060a00160405280858152602001848152602001838152602001838152602001828152506006600082015181600001908051906020019062000557929190620006da565b50602082015181600101908051906020019062000576929190620006da565b50604082015181600201556060820151816003015560808201518160040155905050620005ca6040518060600160405280602681526020016200574760269139858486620005ef60201b62001bd51760201c565b620005e1600b6200069b60201b62001c771760201c565b505050505050505062000dee565b62000695848484846040516024016200060c949392919062000af2565b6040516020818303038152906040527f8d142cdd000000000000000000000000000000000000000000000000000000007bffffffffffffffffffffffffffffffffffffffffffffffffffffffff19166020820180517bffffffffffffffffffffffffffffffffffffffffffffffffffffffff8381831617835250505050620006b160201b60201c565b50505050565b6001816000016000828254019250508190555050565b60008151905060006a636f6e736f6c652e6c6f679050602083016000808483855afa5050505050565b828054620006e89062000cca565b90600052602060002090601f0160209004810192826200070c576000855562000758565b82601f106200072757805160ff191683800117855562000758565b8280016001018555821562000758579182015b82811115620007575782518255916020019190600101906200073a565b5b5090506200076791906200076b565b5090565b5b80821115620007865760008160009055506001016200076c565b5090565b6000620007a16200079b8462000b7d565b62000b54565b9050808382526020820190508260005b85811015620007e55781518501620007ca888262000903565b845260208401935060208301925050600181019050620007b1565b5050509392505050565b600062000806620008008462000bac565b62000b54565b905080838252602082019050828560208602820111156200082657600080fd5b60005b858110156200085a57816200083f888262000930565b84526020840193506020830192505060018101905062000829565b5050509392505050565b60006200087b620008758462000bdb565b62000b54565b9050828152602081018484840111156200089457600080fd5b620008a184828562000c94565b509392505050565b600082601f830112620008bb57600080fd5b8151620008cd8482602086016200078a565b91505092915050565b600082601f830112620008e857600080fd5b8151620008fa848260208601620007ef565b91505092915050565b600082601f8301126200091557600080fd5b81516200092784826020860162000864565b91505092915050565b600081519050620009418162000dd4565b92915050565b600080600080600080600080610100898b0312156200096557600080fd5b600089015167ffffffffffffffff8111156200098057600080fd5b6200098e8b828c01620008a9565b985050602089015167ffffffffffffffff811115620009ac57600080fd5b620009ba8b828c01620008a9565b975050604089015167ffffffffffffffff811115620009d857600080fd5b620009e68b828c01620008d6565b965050606089015167ffffffffffffffff81111562000a0457600080fd5b62000a128b828c01620008d6565b955050608089015167ffffffffffffffff81111562000a3057600080fd5b62000a3e8b828c0162000903565b94505060a089015167ffffffffffffffff81111562000a5c57600080fd5b62000a6a8b828c0162000903565b93505060c062000a7d8b828c0162000930565b92505060e062000a908b828c0162000930565b9150509295985092959890939650565b600062000aad8262000c11565b62000ab9818562000c1c565b935062000acb81856020860162000c94565b62000ad68162000dc3565b840191505092915050565b62000aec8162000c8a565b82525050565b6000608082019050818103600083015262000b0e818762000aa0565b9050818103602083015262000b24818662000aa0565b905062000b35604083018562000ae1565b818103606083015262000b49818462000aa0565b905095945050505050565b600062000b6062000b73565b905062000b6e828262000d00565b919050565b6000604051905090565b600067ffffffffffffffff82111562000b9b5762000b9a62000d94565b5b602082029050602081019050919050565b600067ffffffffffffffff82111562000bca5762000bc962000d94565b5b602082029050602081019050919050565b600067ffffffffffffffff82111562000bf95762000bf862000d94565b5b62000c048262000dc3565b9050602081019050919050565b600081519050919050565b600082825260208201905092915050565b600062000c3a8262000c8a565b915062000c478362000c8a565b9250827fffffffffffffffffffffffffffffffffffffffffffffffffffffffffffffffff0382111562000c7f5762000c7e62000d36565b5b828201905092915050565b6000819050919050565b60005b8381101562000cb457808201518184015260208101905062000c97565b8381111562000cc4576000848401525b50505050565b6000600282049050600182168062000ce357607f821691505b6020821081141562000cfa5762000cf962000d65565b5b50919050565b62000d0b8262000dc3565b810181811067ffffffffffffffff8211171562000d2d5762000d2c62000d94565b5b80604052505050565b7f4e487b7100000000000000000000000000000000000000000000000000000000600052601160045260246000fd5b7f4e487b7100000000000000000000000000000000000000000000000000000000600052602260045260246000fd5b7f4e487b7100000000000000000000000000000000000000000000000000000000600052604160045260246000fd5b6000601f19601f8301169050919050565b62000ddf8162000c8a565b811462000deb57600080fd5b50565b6149498062000dfe6000396000f3fe608060405234801561001057600080fd5b50600436106101375760003560e01c806395d89b41116100b8578063b953084e1161007c578063b953084e14610369578063c732d39614610387578063c87b56dd146103a5578063d4f24c5b146103d5578063e985e9c5146103df578063f8b81ef71461040f57610137565b806395d89b41146102bc57806398da4c95146102da578063a22cb4651461030f578063a9c326791461032b578063b88d4fde1461034d57610137565b806323b872dd116100ff57806323b872dd146101f457806342842e0e146102105780636352211e1461022c57806370a082311461025c5780637df124a11461028c57610137565b806301ffc9a71461013c5780630665f9611461016c57806306fdde031461018a578063081812fc146101a8578063095ea7b3146101d8575b600080fd5b61015660048036038101906101519190612fcf565b61042b565b604051610163919061389b565b60405180910390f35b61017461050d565b6040516101819190613c34565b60405180910390f35b610192610669565b60405161019f91906138b6565b60405180910390f35b6101c260048036038101906101bd9190613021565b6106fb565b6040516101cf91906137db565b60405180910390f35b6101f260048036038101906101ed9190612f93565b610780565b005b61020e60048036038101906102099190612e8d565b610898565b005b61022a60048036038101906102259190612e8d565b6108f8565b005b61024660048036038101906102419190613021565b610918565b60405161025391906137db565b60405180910390f35b61027660048036038101906102719190612e28565b6109ca565b6040516102839190613c78565b60405180910390f35b6102a660048036038101906102a19190612e28565b610a82565b6040516102b39190613c78565b60405180910390f35b6102c4610a9a565b6040516102d191906138b6565b60405180910390f35b6102f460048036038101906102ef9190613021565b610b2c565b60405161030696959493929190613c93565b60405180910390f35b61032960048036038101906103249190612f57565b610c78565b005b610333610c8e565b604051610344959493929190613985565b60405180910390f35b61036760048036038101906103629190612edc565b610dc2565b005b610371610e24565b60405161037e9190613879565b60405180910390f35b61038f610fcf565b60405161039c9190613c56565b60405180910390f35b6103bf60048036038101906103ba9190613021565b6111a7565b6040516103cc91906138b6565b60405180910390f35b6103dd6113c2565b005b6103f960048036038101906103f49190612e51565b61174d565b604051610406919061389b565b60405180910390f35b61042960048036038101906104249190613021565b6117e1565b005b60007f80ac58cd000000000000000000000000000000000000000000000000000000007bffffffffffffffffffffffffffffffffffffffffffffffffffffffff1916827bffffffffffffffffffffffffffffffffffffffffffffffffffffffff191614806104f657507f5b5e139f000000000000000000000000000000000000000000000000000000007bffffffffffffffffffffffffffffffffffffffffffffffffffffffff1916827bffffffffffffffffffffffffffffffffffffffffffffffffffffffff1916145b80610506575061050582611c8d565b5b9050919050565b610515612c4f565b60066040518060a001604052908160008201805461053290613fd9565b80601f016020809104026020016040519081016040528092919081815260200182805461055e90613fd9565b80156105ab5780601f10610580576101008083540402835291602001916105ab565b820191906000526020600020905b81548152906001019060200180831161058e57829003601f168201915b505050505081526020016001820180546105c490613fd9565b80601f01602080910402602001604051908101604052809291908181526020018280546105f090613fd9565b801561063d5780601f106106125761010080835404028352916020019161063d565b820191906000526020600020905b81548152906001019060200180831161062057829003601f168201915b505050505081526020016002820154815260200160038201548152602001600482015481525050905090565b60606000805461067890613fd9565b80601f01602080910402602001604051908101604052809291908181526020018280546106a490613fd9565b80156106f15780601f106106c6576101008083540402835291602001916106f1565b820191906000526020600020905b8154815290600101906020018083116106d457829003601f168201915b5050505050905090565b600061070682611cf7565b610745576040517f08c379a000000000000000000000000000000000000000000000000000000000815260040161073c90613bb4565b60405180910390fd5b6004600083815260200190815260200160002060009054906101000a900473ffffffffffffffffffffffffffffffffffffffff169050919050565b600061078b82610918565b90508073ffffffffffffffffffffffffffffffffffffffff168373ffffffffffffffffffffffffffffffffffffffff1614156107fc576040517f08c379a00000000000000000000000000000000000000000000000000000000081526004016107f390613bd4565b60405180910390fd5b8073ffffffffffffffffffffffffffffffffffffffff1661081b611d63565b73ffffffffffffffffffffffffffffffffffffffff16148061084a575061084981610844611d63565b61174d565b5b610889576040517f08c379a000000000000000000000000000000000000000000000000000000000815260040161088090613b34565b60405180910390fd5b6108938383611d6b565b505050565b6108a96108a3611d63565b82611e24565b6108e8576040517f08c379a00000000000000000000000000000000000000000000000000000000081526004016108df90613bf4565b60405180910390fd5b6108f3838383611f02565b505050565b61091383838360405180602001604052806000815250610dc2565b505050565b6000806002600084815260200190815260200160002060009054906101000a900473ffffffffffffffffffffffffffffffffffffffff169050600073ffffffffffffffffffffffffffffffffffffffff168173ffffffffffffffffffffffffffffffffffffffff1614156109c1576040517f08c379a00000000000000000000000000000000000000000000000000000000081526004016109b890613b74565b60405180910390fd5b80915050919050565b60008073ffffffffffffffffffffffffffffffffffffffff168273ffffffffffffffffffffffffffffffffffffffff161415610a3b576040517f08c379a0000000000000000000000000000000000000000000000000000000008152600401610a3290613b54565b60405180910390fd5b600360008373ffffffffffffffffffffffffffffffffffffffff1673ffffffffffffffffffffffffffffffffffffffff168152602001908152602001600020549050919050565b600e6020528060005260406000206000915090505481565b606060018054610aa990613fd9565b80601f0160208091040260200160405190810160405280929190818152602001828054610ad590613fd9565b8015610b225780601f10610af757610100808354040283529160200191610b22565b820191906000526020600020905b815481529060010190602001808311610b0557829003601f168201915b5050505050905090565b600d602052806000526040600020600091509050806000015490806001018054610b5590613fd9565b80601f0160208091040260200160405190810160405280929190818152602001828054610b8190613fd9565b8015610bce5780601f10610ba357610100808354040283529160200191610bce565b820191906000526020600020905b815481529060010190602001808311610bb157829003601f168201915b505050505090806002018054610be390613fd9565b80601f0160208091040260200160405190810160405280929190818152602001828054610c0f90613fd9565b8015610c5c5780601f10610c3157610100808354040283529160200191610c5c565b820191906000526020600020905b815481529060010190602001808311610c3f57829003601f168201915b5050505050908060030154908060040154908060050154905086565b610c8a610c83611d63565b8383612169565b5050565b6006806000018054610c9f90613fd9565b80601f0160208091040260200160405190810160405280929190818152602001828054610ccb90613fd9565b8015610d185780601f10610ced57610100808354040283529160200191610d18565b820191906000526020600020905b815481529060010190602001808311610cfb57829003601f168201915b505050505090806001018054610d2d90613fd9565b80601f0160208091040260200160405190810160405280929190818152602001828054610d5990613fd9565b8015610da65780601f10610d7b57610100808354040283529160200191610da6565b820191906000526020600020905b815481529060010190602001808311610d8957829003601f168201915b5050505050908060020154908060030154908060040154905085565b610dd3610dcd611d63565b83611e24565b610e12576040517f08c379a0000000000000000000000000000000000000000000000000000000008152600401610e0990613bf4565b60405180910390fd5b610e1e848484846122d6565b50505050565b6060600c805480602002602001604051908101604052809291908181526020016000905b82821015610fc657838290600052602060002090600602016040518060c001604052908160008201548152602001600182018054610e8590613fd9565b80601f0160208091040260200160405190810160405280929190818152602001828054610eb190613fd9565b8015610efe5780601f10610ed357610100808354040283529160200191610efe565b820191906000526020600020905b815481529060010190602001808311610ee157829003601f168201915b50505050508152602001600282018054610f1790613fd9565b80601f0160208091040260200160405190810160405280929190818152602001828054610f4390613fd9565b8015610f905780601f10610f6557610100808354040283529160200191610f90565b820191906000526020600020905b815481529060010190602001808311610f7357829003601f168201915b50505050508152602001600382015481526020016004820154815260200160058201548152505081526020019060010190610e48565b50505050905090565b610fd7612c7e565b6000600e60003373ffffffffffffffffffffffffffffffffffffffff1673ffffffffffffffffffffffffffffffffffffffff168152602001908152602001600020549050600081111561119657600d60008281526020019081526020016000206040518060c00160405290816000820154815260200160018201805461105c90613fd9565b80601f016020809104026020016040519081016040528092919081815260200182805461108890613fd9565b80156110d55780601f106110aa576101008083540402835291602001916110d5565b820191906000526020600020905b8154815290600101906020018083116110b857829003601f168201915b505050505081526020016002820180546110ee90613fd9565b80601f016020809104026020016040519081016040528092919081815260200182805461111a90613fd9565b80156111675780601f1061113c57610100808354040283529160200191611167565b820191906000526020600020905b81548152906001019060200180831161114a57829003601f168201915b5050505050815260200160038201548152602001600482015481526020016005820154815250509150506111a4565b61119e612c7e565b80925050505b90565b60606000600d60008481526020019081526020016000206040518060c0016040529081600082015481526020016001820180546111e390613fd9565b80601f016020809104026020016040519081016040528092919081815260200182805461120f90613fd9565b801561125c5780601f106112315761010080835404028352916020019161125c565b820191906000526020600020905b81548152906001019060200180831161123f57829003601f168201915b5050505050815260200160028201805461127590613fd9565b80601f01602080910402602001604051908101604052809291908181526020018280546112a190613fd9565b80156112ee5780601f106112c3576101008083540402835291602001916112ee565b820191906000526020600020905b8154815290600101906020018083116112d157829003601f168201915b505050505081526020016003820154815260200160048201548152602001600582015481525050905060006113268260600151612332565b905060006113378360800151612332565b905060006113488460a00151612332565b9050600061138e856020015161135d89612332565b876040015187878760405160200161137a969594939291906136f3565b6040516020818303038152906040526124df565b90506000816040516020016113a391906137b9565b6040516020818303038152906040529050809650505050505050919050565b6000600e60003373ffffffffffffffffffffffffffffffffffffffff1673ffffffffffffffffffffffffffffffffffffffff1681526020019081526020016000205490506000600d600083815260200190815260200160002090506000816003015411611464576040517f08c379a000000000000000000000000000000000000000000000000000000000815260040161145b90613c14565b60405180910390fd5b6000600660020154116114ac576040517f08c379a00000000000000000000000000000000000000000000000000000000081526004016114a390613a94565b60405180910390fd5b6115646040518060600160405280603c81526020016148d8603c91398260010180546114d790613fd9565b80601f016020809104026020016040519081016040528092919081815260200182805461150390613fd9565b80156115505780601f1061152557610100808354040283529160200191611550565b820191906000526020600020905b81548152906001019060200180831161153357829003601f168201915b50505050508360030154846005015461269d565b61163c6040518060400160405280601b81526020017f426f73732025732068617320257320485020616e642025732041440000000000815250600660000180546115ad90613fd9565b80601f01602080910402602001604051908101604052809291908181526020018280546115d990613fd9565b80156116265780601f106115fb57610100808354040283529160200191611626565b820191906000526020600020905b81548152906001019060200180831161160957829003601f168201915b505050505060066002015460066004015461269d565b8060050154600660020154101561165d57600060066002018190555061167c565b80600501546006600201546116729190613eef565b6006600201819055505b6006600401548160030154101561169c57600081600301819055506116ba565b60066004015481600301546116b19190613eef565b81600301819055505b6116e160405180606001604052806025815260200161481b6025913960066002015461273f565b61170760405180606001604052806028815260200161488060289139826003015461273f565b7f838ab28464562786a6c4ab2311964b82fa60bd9b14aa7e856af1f3f18d41a4146006600201548260030154604051611741929190613d02565b60405180910390a15050565b6000600560008473ffffffffffffffffffffffffffffffffffffffff1673ffffffffffffffffffffffffffffffffffffffff16815260200190815260200160002060008373ffffffffffffffffffffffffffffffffffffffff1673ffffffffffffffffffffffffffffffffffffffff16815260200190815260200160002060009054906101000a900460ff16905092915050565b60006117ed600b6127db565b90506117f933826127e9565b6040518060c00160405280838152602001600c8481548110611844577f4e487b7100000000000000000000000000000000000000000000000000000000600052603260045260246000fd5b9060005260206000209060060201600101805461186090613fd9565b80601f016020809104026020016040519081016040528092919081815260200182805461188c90613fd9565b80156118d95780601f106118ae576101008083540402835291602001916118d9565b820191906000526020600020905b8154815290600101906020018083116118bc57829003601f168201915b50505050508152602001600c848154811061191d577f4e487b7100000000000000000000000000000000000000000000000000000000600052603260045260246000fd5b9060005260206000209060060201600201805461193990613fd9565b80601f016020809104026020016040519081016040528092919081815260200182805461196590613fd9565b80156119b25780601f10611987576101008083540402835291602001916119b2565b820191906000526020600020905b81548152906001019060200180831161199557829003601f168201915b50505050508152602001600c84815481106119f6577f4e487b7100000000000000000000000000000000000000000000000000000000600052603260045260246000fd5b9060005260206000209060060201600301548152602001600c8481548110611a47577f4e487b7100000000000000000000000000000000000000000000000000000000600052603260045260246000fd5b9060005260206000209060060201600401548152602001600c8481548110611a98577f4e487b7100000000000000000000000000000000000000000000000000000000600052603260045260246000fd5b906000526020600020906006020160050154815250600d6000838152602001908152602001600020600082015181600001556020820151816001019080519060200190611ae6929190612cb4565b506040820151816002019080519060200190611b03929190612cb4565b50606082015181600301556080820151816004015560a08201518160050155905050611b486040518060600160405280603081526020016148a86030913982846129c3565b80600e60003373ffffffffffffffffffffffffffffffffffffffff1673ffffffffffffffffffffffffffffffffffffffff16815260200190815260200160002081905550611b96600b611c77565b7f4bc303fd457a97b4691b9af582ce71868a3d258638c8d4f8c60988a0f0bfb8cd338284604051611bc993929190613842565b60405180910390a15050565b611c7184848484604051602401611bef94939291906138d8565b6040516020818303038152906040527f8d142cdd000000000000000000000000000000000000000000000000000000007bffffffffffffffffffffffffffffffffffffffffffffffffffffffff19166020820180517bffffffffffffffffffffffffffffffffffffffffffffffffffffffff8381831617835250505050612a62565b50505050565b6001816000016000828254019250508190555050565b60007f01ffc9a7000000000000000000000000000000000000000000000000000000007bffffffffffffffffffffffffffffffffffffffffffffffffffffffff1916827bffffffffffffffffffffffffffffffffffffffffffffffffffffffff1916149050919050565b60008073ffffffffffffffffffffffffffffffffffffffff166002600084815260200190815260200160002060009054906101000a900473ffffffffffffffffffffffffffffffffffffffff1673ffffffffffffffffffffffffffffffffffffffff1614159050919050565b600033905090565b816004600083815260200190815260200160002060006101000a81548173ffffffffffffffffffffffffffffffffffffffff021916908373ffffffffffffffffffffffffffffffffffffffff160217905550808273ffffffffffffffffffffffffffffffffffffffff16611dde83610918565b73ffffffffffffffffffffffffffffffffffffffff167f8c5be1e5ebec7d5bd14f71427d1e84f3dd0314c0f7b2291e5b200ac8c7c3b92560405160405180910390a45050565b6000611e2f82611cf7565b611e6e576040517f08c379a0000000000000000000000000000000000000000000000000000000008152600401611e6590613b14565b60405180910390fd5b6000611e7983610918565b90508073ffffffffffffffffffffffffffffffffffffffff168473ffffffffffffffffffffffffffffffffffffffff161480611ee857508373ffffffffffffffffffffffffffffffffffffffff16611ed0846106fb565b73ffffffffffffffffffffffffffffffffffffffff16145b80611ef95750611ef8818561174d565b5b91505092915050565b8273ffffffffffffffffffffffffffffffffffffffff16611f2282610918565b73ffffffffffffffffffffffffffffffffffffffff1614611f78576040517f08c379a0000000000000000000000000000000000000000000000000000000008152600401611f6f90613a74565b60405180910390fd5b600073ffffffffffffffffffffffffffffffffffffffff168273ffffffffffffffffffffffffffffffffffffffff161415611fe8576040517f08c379a0000000000000000000000000000000000000000000000000000000008152600401611fdf90613ad4565b60405180910390fd5b611ff3838383612a8b565b611ffe600082611d6b565b6001600360008573ffffffffffffffffffffffffffffffffffffffff1673ffffffffffffffffffffffffffffffffffffffff168152602001908152602001600020600082825461204e9190613eef565b925050819055506001600360008473ffffffffffffffffffffffffffffffffffffffff1673ffffffffffffffffffffffffffffffffffffffff16815260200190815260200160002060008282546120a59190613e0e565b92505081905550816002600083815260200190815260200160002060006101000a81548173ffffffffffffffffffffffffffffffffffffffff021916908373ffffffffffffffffffffffffffffffffffffffff160217905550808273ffffffffffffffffffffffffffffffffffffffff168473ffffffffffffffffffffffffffffffffffffffff167fddf252ad1be2c89b69c2b068fc378daa952ba7f163c4a11628f55a4df523b3ef60405160405180910390a4612164838383612a90565b505050565b8173ffffffffffffffffffffffffffffffffffffffff168373ffffffffffffffffffffffffffffffffffffffff1614156121d8576040517f08c379a00000000000000000000000000000000000000000000000000000000081526004016121cf90613af4565b60405180910390fd5b80600560008573ffffffffffffffffffffffffffffffffffffffff1673ffffffffffffffffffffffffffffffffffffffff16815260200190815260200160002060008473ffffffffffffffffffffffffffffffffffffffff1673ffffffffffffffffffffffffffffffffffffffff16815260200190815260200160002060006101000a81548160ff0219169083151502179055508173ffffffffffffffffffffffffffffffffffffffff168373ffffffffffffffffffffffffffffffffffffffff167f17307eab39ab6107e8899845ad3d59bd9653f200f220920489ca2b5937696c31836040516122c9919061389b565b60405180910390a3505050565b6122e1848484611f02565b6122ed84848484612a95565b61232c576040517f08c379a000000000000000000000000000000000000000000000000000000000815260040161232390613a54565b60405180910390fd5b50505050565b6060600082141561237a576040518060400160405280600181526020017f300000000000000000000000000000000000000000000000000000000000000081525090506124da565b600082905060005b600082146123ac5780806123959061403c565b915050600a826123a59190613e64565b9150612382565b60008167ffffffffffffffff8111156123ee577f4e487b7100000000000000000000000000000000000000000000000000000000600052604160045260246000fd5b6040519080825280601f01601f1916602001820160405280156124205781602001600182028036833780820191505090505b5090505b600085146124d3576001826124399190613eef565b9150600a856124489190614085565b60306124549190613e0e565b60f81b818381518110612490577f4e487b7100000000000000000000000000000000000000000000000000000000600052603260045260246000fd5b60200101907effffffffffffffffffffffffffffffffffffffffffffffffffffffffffffff1916908160001a905350600a856124cc9190613e64565b9450612424565b8093505050505b919050565b606060008251905060008114156125085760405180602001604052806000815250915050612698565b600060036002836125199190613e0e565b6125239190613e64565b600461252f9190613e95565b905060006020826125409190613e0e565b67ffffffffffffffff81111561257f577f4e487b7100000000000000000000000000000000000000000000000000000000600052604160045260246000fd5b6040519080825280601f01601f1916602001820160405280156125b15781602001600182028036833780820191505090505b5090506000604051806060016040528060408152602001614840604091399050600181016020830160005b868110156126555760038101905062ffffff818a015116603f8160121c168401518060081b905060ff603f83600c1c1686015116810190508060081b905060ff603f8360061c1686015116810190508060081b905060ff603f831686015116810190508060e01b905080845260048401935050506125dc565b50600386066001811461266f576002811461267f5761268a565b613d3d60f01b600283035261268a565b603d60f81b60018303525b508484525050819450505050505b919050565b612739848484846040516024016126b79493929190613932565b6040516020818303038152906040527fd5cf17d0000000000000000000000000000000000000000000000000000000007bffffffffffffffffffffffffffffffffffffffffffffffffffffffff19166020820180517bffffffffffffffffffffffffffffffffffffffffffffffffffffffff8381831617835250505050612a62565b50505050565b6127d782826040516024016127559291906139e6565b6040516020818303038152906040527f9710a9d0000000000000000000000000000000000000000000000000000000007bffffffffffffffffffffffffffffffffffffffffffffffffffffffff19166020820180517bffffffffffffffffffffffffffffffffffffffffffffffffffffffff8381831617835250505050612a62565b5050565b600081600001549050919050565b600073ffffffffffffffffffffffffffffffffffffffff168273ffffffffffffffffffffffffffffffffffffffff161415612859576040517f08c379a000000000000000000000000000000000000000000000000000000000815260040161285090613b94565b60405180910390fd5b61286281611cf7565b156128a2576040517f08c379a000000000000000000000000000000000000000000000000000000000815260040161289990613ab4565b60405180910390fd5b6128ae60008383612a8b565b6001600360008473ffffffffffffffffffffffffffffffffffffffff1673ffffffffffffffffffffffffffffffffffffffff16815260200190815260200160002060008282546128fe9190613e0e565b92505081905550816002600083815260200190815260200160002060006101000a81548173ffffffffffffffffffffffffffffffffffffffff021916908373ffffffffffffffffffffffffffffffffffffffff160217905550808273ffffffffffffffffffffffffffffffffffffffff16600073ffffffffffffffffffffffffffffffffffffffff167fddf252ad1be2c89b69c2b068fc378daa952ba7f163c4a11628f55a4df523b3ef60405160405180910390a46129bf60008383612a90565b5050565b612a5d8383836040516024016129db93929190613a16565b6040516020818303038152906040527f969cdd03000000000000000000000000000000000000000000000000000000007bffffffffffffffffffffffffffffffffffffffffffffffffffffffff19166020820180517bffffffffffffffffffffffffffffffffffffffffffffffffffffffff8381831617835250505050612a62565b505050565b60008151905060006a636f6e736f6c652e6c6f679050602083016000808483855afa5050505050565b505050565b505050565b6000612ab68473ffffffffffffffffffffffffffffffffffffffff16612c2c565b15612c1f578373ffffffffffffffffffffffffffffffffffffffff1663150b7a02612adf611d63565b8786866040518563ffffffff1660e01b8152600401612b0194939291906137f6565b602060405180830381600087803b158015612b1b57600080fd5b505af1925050508015612b4c57506040513d601f19601f82011682018060405250810190612b499190612ff8565b60015b612bcf573d8060008114612b7c576040519150601f19603f3d011682016040523d82523d6000602084013e612b81565b606091505b50600081511415612bc7576040517f08c379a0000000000000000000000000000000000000000000000000000000008152600401612bbe90613a54565b60405180910390fd5b805181602001fd5b63150b7a0260e01b7bffffffffffffffffffffffffffffffffffffffffffffffffffffffff1916817bffffffffffffffffffffffffffffffffffffffffffffffffffffffff191614915050612c24565b600190505b949350505050565b6000808273ffffffffffffffffffffffffffffffffffffffff163b119050919050565b6040518060a0016040528060608152602001606081526020016000815260200160008152602001600081525090565b6040518060c001604052806000815260200160608152602001606081526020016000815260200160008152602001600081525090565b828054612cc090613fd9565b90600052602060002090601f016020900481019282612ce25760008555612d29565b82601f10612cfb57805160ff1916838001178555612d29565b82800160010185558215612d29579182015b82811115612d28578251825591602001919060010190612d0d565b5b509050612d369190612d3a565b5090565b5b80821115612d53576000816000905550600101612d3b565b5090565b6000612d6a612d6584613d50565b613d2b565b905082815260208101848484011115612d8257600080fd5b612d8d848285613f97565b509392505050565b600081359050612da4816147be565b92915050565b600081359050612db9816147d5565b92915050565b600081359050612dce816147ec565b92915050565b600081519050612de3816147ec565b92915050565b600082601f830112612dfa57600080fd5b8135612e0a848260208601612d57565b91505092915050565b600081359050612e2281614803565b92915050565b600060208284031215612e3a57600080fd5b6000612e4884828501612d95565b91505092915050565b60008060408385031215612e6457600080fd5b6000612e7285828601612d95565b9250506020612e8385828601612d95565b9150509250929050565b600080600060608486031215612ea257600080fd5b6000612eb086828701612d95565b9350506020612ec186828701612d95565b9250506040612ed286828701612e13565b9150509250925092565b60008060008060808587031215612ef257600080fd5b6000612f0087828801612d95565b9450506020612f1187828801612d95565b9350506040612f2287828801612e13565b925050606085013567ffffffffffffffff811115612f3f57600080fd5b612f4b87828801612de9565b91505092959194509250565b60008060408385031215612f6a57600080fd5b6000612f7885828601612d95565b9250506020612f8985828601612daa565b9150509250929050565b60008060408385031215612fa657600080fd5b6000612fb485828601612d95565b9250506020612fc585828601612e13565b9150509250929050565b600060208284031215612fe157600080fd5b6000612fef84828501612dbf565b91505092915050565b60006020828403121561300a57600080fd5b600061301884828501612dd4565b91505092915050565b60006020828403121561303357600080fd5b600061304184828501612e13565b91505092915050565b600061305683836135b5565b905092915050565b61306781613f23565b82525050565b600061307882613d91565b6130828185613dbf565b93508360208202850161309485613d81565b8060005b858110156130d057848403895281516130b1858261304a565b94506130bc83613db2565b925060208a01995050600181019050613098565b50829750879550505050505092915050565b6130eb81613f35565b82525050565b60006130fc82613d9c565b6131068185613dd0565b9350613116818560208601613fa6565b61311f81614172565b840191505092915050565b600061313582613da7565b61313f8185613de1565b935061314f818560208601613fa6565b61315881614172565b840191505092915050565b600061316e82613da7565b6131788185613df2565b9350613188818560208601613fa6565b61319181614172565b840191505092915050565b60006131a782613da7565b6131b18185613e03565b93506131c1818560208601613fa6565b80840191505092915050565b60006131da600983613e03565b91506131e582614183565b600982019050919050565b60006131fd603283613df2565b9150613208826141ac565b604082019050919050565b6000613220600283613e03565b915061322b826141fb565b600282019050919050565b6000613243602583613df2565b915061324e82614224565b604082019050919050565b6000613266601b83613df2565b915061327182614273565b602082019050919050565b6000613289601c83613df2565b91506132948261429c565b602082019050919050565b60006132ac600e83613e03565b91506132b7826142c5565b600e82019050919050565b60006132cf602483613df2565b91506132da826142ee565b604082019050919050565b60006132f2601983613df2565b91506132fd8261433d565b602082019050919050565b6000613315602c83613df2565b915061332082614366565b604082019050919050565b6000613338603883613df2565b9150613343826143b5565b604082019050919050565b600061335b602a83613df2565b915061336682614404565b604082019050919050565b600061337e602983613df2565b915061338982614453565b604082019050919050565b60006133a1602083613df2565b91506133ac826144a2565b602082019050919050565b60006133c4600383613e03565b91506133cf826144cb565b600382019050919050565b60006133e7602c83613df2565b91506133f2826144f4565b604082019050919050565b600061340a602183613df2565b915061341582614543565b604082019050919050565b600061342d601d83613e03565b915061343882614592565b601d82019050919050565b6000613450604283613e03565b915061345b826145bb565b604282019050919050565b6000613473603183613df2565b915061347e82614630565b604082019050919050565b6000613496600983613e03565b91506134a18261467f565b600982019050919050565b60006134b9602d83613e03565b91506134c4826146a8565b602d82019050919050565b60006134dc600a83613e03565b91506134e7826146f7565b600a82019050919050565b60006134ff603983613e03565b915061350a82614720565b603982019050919050565b6000613522603083613df2565b915061352d8261476f565b604082019050919050565b600060a0830160008301518482036000860152613555828261312a565b9150506020830151848203602086015261356f828261312a565b915050604083015161358460408601826136d5565b50606083015161359760608601826136d5565b5060808301516135aa60808601826136d5565b508091505092915050565b600060c0830160008301516135cd60008601826136d5565b50602083015184820360208601526135e5828261312a565b915050604083015184820360408601526135ff828261312a565b915050606083015161361460608601826136d5565b50608083015161362760808601826136d5565b5060a083015161363a60a08601826136d5565b508091505092915050565b600060c08301600083015161365d60008601826136d5565b5060208301518482036020860152613675828261312a565b9150506040830151848203604086015261368f828261312a565b91505060608301516136a460608601826136d5565b5060808301516136b760808601826136d5565b5060a08301516136ca60a08601826136d5565b508091505092915050565b6136de81613f8d565b82525050565b6136ed81613f8d565b82525050565b60006136fe826131cd565b915061370a828961319c565b915061371582613489565b9150613721828861319c565b915061372c82613213565b915061373782613443565b9150613742826134cf565b915061374e828761319c565b915061375982613213565b9150613764826134f2565b9150613770828661319c565b915061377b8261329f565b9150613787828561319c565b9150613792826134ac565b915061379e828461319c565b91506137a9826133b7565b9150819050979650505050505050565b60006137c482613420565b91506137d0828461319c565b915081905092915050565b60006020820190506137f0600083018461305e565b92915050565b600060808201905061380b600083018761305e565b613818602083018661305e565b61382560408301856136e4565b818103606083015261383781846130f1565b905095945050505050565b6000606082019050613857600083018661305e565b61386460208301856136e4565b61387160408301846136e4565b949350505050565b60006020820190508181036000830152613893818461306d565b905092915050565b60006020820190506138b060008301846130e2565b92915050565b600060208201905081810360008301526138d08184613163565b905092915050565b600060808201905081810360008301526138f28187613163565b905081810360208301526139068186613163565b905061391560408301856136e4565b81810360608301526139278184613163565b905095945050505050565b6000608082019050818103600083015261394c8187613163565b905081810360208301526139608186613163565b905061396f60408301856136e4565b61397c60608301846136e4565b95945050505050565b600060a082019050818103600083015261399f8188613163565b905081810360208301526139b38187613163565b90506139c260408301866136e4565b6139cf60608301856136e4565b6139dc60808301846136e4565b9695505050505050565b60006040820190508181036000830152613a008185613163565b9050613a0f60208301846136e4565b9392505050565b60006060820190508181036000830152613a308186613163565b9050613a3f60208301856136e4565b613a4c60408301846136e4565b949350505050565b60006020820190508181036000830152613a6d816131f0565b9050919050565b60006020820190508181036000830152613a8d81613236565b9050919050565b60006020820190508181036000830152613aad81613259565b9050919050565b60006020820190508181036000830152613acd8161327c565b9050919050565b60006020820190508181036000830152613aed816132c2565b9050919050565b60006020820190508181036000830152613b0d816132e5565b9050919050565b60006020820190508181036000830152613b2d81613308565b9050919050565b60006020820190508181036000830152613b4d8161332b565b9050919050565b60006020820190508181036000830152613b6d8161334e565b9050919050565b60006020820190508181036000830152613b8d81613371565b9050919050565b60006020820190508181036000830152613bad81613394565b9050919050565b60006020820190508181036000830152613bcd816133da565b9050919050565b60006020820190508181036000830152613bed816133fd565b9050919050565b60006020820190508181036000830152613c0d81613466565b9050919050565b60006020820190508181036000830152613c2d81613515565b9050919050565b60006020820190508181036000830152613c4e8184613538565b905092915050565b60006020820190508181036000830152613c708184613645565b905092915050565b6000602082019050613c8d60008301846136e4565b92915050565b600060c082019050613ca860008301896136e4565b8181036020830152613cba8188613163565b90508181036040830152613cce8187613163565b9050613cdd60608301866136e4565b613cea60808301856136e4565b613cf760a08301846136e4565b979650505050505050565b6000604082019050613d1760008301856136e4565b613d2460208301846136e4565b9392505050565b6000613d35613d46565b9050613d41828261400b565b919050565b6000604051905090565b600067ffffffffffffffff821115613d6b57613d6a614143565b5b613d7482614172565b9050602081019050919050565b6000819050602082019050919050565b600081519050919050565b600081519050919050565b600081519050919050565b6000602082019050919050565b600082825260208201905092915050565b600082825260208201905092915050565b600082825260208201905092915050565b600082825260208201905092915050565b600081905092915050565b6000613e1982613f8d565b9150613e2483613f8d565b9250827fffffffffffffffffffffffffffffffffffffffffffffffffffffffffffffffff03821115613e5957613e586140b6565b5b828201905092915050565b6000613e6f82613f8d565b9150613e7a83613f8d565b925082613e8a57613e896140e5565b5b828204905092915050565b6000613ea082613f8d565b9150613eab83613f8d565b9250817fffffffffffffffffffffffffffffffffffffffffffffffffffffffffffffffff0483118215151615613ee457613ee36140b6565b5b828202905092915050565b6000613efa82613f8d565b9150613f0583613f8d565b925082821015613f1857613f176140b6565b5b828203905092915050565b6000613f2e82613f6d565b9050919050565b60008115159050919050565b60007fffffffff0000000000000000000000000000000000000000000000000000000082169050919050565b600073ffffffffffffffffffffffffffffffffffffffff82169050919050565b6000819050919050565b82818337600083830152505050565b60005b83811015613fc4578082015181840152602081019050613fa9565b83811115613fd3576000848401525b50505050565b60006002820490506001821680613ff157607f821691505b6020821081141561400557614004614114565b5b50919050565b61401482614172565b810181811067ffffffffffffffff8211171561403357614032614143565b5b80604052505050565b600061404782613f8d565b91507fffffffffffffffffffffffffffffffffffffffffffffffffffffffffffffffff82141561407a576140796140b6565b5b600182019050919050565b600061409082613f8d565b915061409b83613f8d565b9250826140ab576140aa6140e5565b5b828206905092915050565b7f4e487b7100000000000000000000000000000000000000000000000000000000600052601160045260246000fd5b7f4e487b7100000000000000000000000000000000000000000000000000000000600052601260045260246000fd5b7f4e487b7100000000000000000000000000000000000000000000000000000000600052602260045260246000fd5b7f4e487b7100000000000000000000000000000000000000000000000000000000600052604160045260246000fd5b6000601f19601f8301169050919050565b7f7b226e616d65223a220000000000000000000000000000000000000000000000600082015250565b7f4552433732313a207472616e7366657220746f206e6f6e20455243373231526560008201527f63656976657220696d706c656d656e7465720000000000000000000000000000602082015250565b7f222c000000000000000000000000000000000000000000000000000000000000600082015250565b7f4552433732313a207472616e736665722066726f6d20696e636f72726563742060008201527f6f776e6572000000000000000000000000000000000000000000000000000000602082015250565b7f4572726f723a20426f737320697320616c726561647920646561640000000000600082015250565b7f4552433732313a20746f6b656e20616c7265616479206d696e74656400000000600082015250565b7f2c20226d61785f76616c7565223a000000000000000000000000000000000000600082015250565b7f4552433732313a207472616e7366657220746f20746865207a65726f2061646460008201527f7265737300000000000000000000000000000000000000000000000000000000602082015250565b7f4552433732313a20617070726f766520746f2063616c6c657200000000000000600082015250565b7f4552433732313a206f70657261746f7220717565727920666f72206e6f6e657860008201527f697374656e7420746f6b656e0000000000000000000000000000000000000000602082015250565b7f4552433732313a20617070726f76652063616c6c6572206973206e6f74206f7760008201527f6e6572206e6f7220617070726f76656420666f7220616c6c0000000000000000602082015250565b7f4552433732313a2062616c616e636520717565727920666f7220746865207a6560008201527f726f206164647265737300000000000000000000000000000000000000000000602082015250565b7f4552433732313a206f776e657220717565727920666f72206e6f6e657869737460008201527f656e7420746f6b656e0000000000000000000000000000000000000000000000602082015250565b7f4552433732313a206d696e7420746f20746865207a65726f2061646472657373600082015250565b7f7d5d7d0000000000000000000000000000000000000000000000000000000000600082015250565b7f4552433732313a20617070726f76656420717565727920666f72206e6f6e657860008201527f697374656e7420746f6b656e0000000000000000000000000000000000000000602082015250565b7f4552433732313a20617070726f76616c20746f2063757272656e74206f776e6560008201527f7200000000000000000000000000000000000000000000000000000000000000602082015250565b7f646174613a6170706c69636174696f6e2f6a736f6e3b6261736536342c000000600082015250565b7f226465736372697074696f6e223a202254686973204e46542063616e2062652060008201527f7573656420746f20706c6179204d617474732045706963204e46542047616d6560208201527f222c000000000000000000000000000000000000000000000000000000000000604082015250565b7f4552433732313a207472616e736665722063616c6c6572206973206e6f74206f60008201527f776e6572206e6f7220617070726f766564000000000000000000000000000000602082015250565b7f202d2d4e465420233a0000000000000000000000000000000000000000000000600082015250565b7f7d2c207b202274726169745f74797065223a202241747461636b2044616d616760008201527f65222c202276616c7565223a2000000000000000000000000000000000000000602082015250565b7f22696d616765223a202200000000000000000000000000000000000000000000600082015250565b7f2261747472696275746573223a205b7b202274726169745f74797065223a202260008201527f4865616c746820506f696e7473222c202276616c7565223a2000000000000000602082015250565b7f4572726f723a20636861726163746572206d7573742068617665206865616c7460008201527f6820746f2061747461636b20626f737300000000000000000000000000000000602082015250565b6147c781613f23565b81146147d257600080fd5b50565b6147de81613f35565b81146147e957600080fd5b50565b6147f581613f41565b811461480057600080fd5b50565b61480c81613f8d565b811461481757600080fd5b5056fe506c617965722061747461636b656420626f73732e204e657720626f73732068703a2025734142434445464748494a4b4c4d4e4f505152535455565758595a6162636465666768696a6b6c6d6e6f707172737475767778797a303132333435363738392b2f426f73732061747461636b656420706c617965722e204e657720706c617965722068703a2025730a4d696e746564204e4654207769746820746f6b656e496420257320616e6420636861726163746572496e6465782025730a506c6179657220772f206368617261637465722025732061626f757420746f2061747461636b2e2048617320257320485020616e64202573204144a26469706673582212202bcbafcecfbb178623478a91995b09dfc5235408f69db5eb3cf1cae6b62fdc4664736f6c63430008010033496e697469616c697a656420426f737320257320776974682025732068702c20696d67202573",
  "linkReferences": {},
  "deployedLinkReferences": {}
}